:100000000C9434000C9451000C9451000C94510049
:100010000C9451000C9451000C9451000C9451001C
:100020000C9451000C9451000C9451000C94B200AB
:100030000C9451000C9451000C9451000C945100FC
:100040000C9451000C9451000C9451000C945100EC
:100050000C9451000C9451000C9451000C945100DC
:100060000C9451000C94510011241FBECFEFD8E026
:10007000DEBFCDBF11E0A0E0B1E0E4EEF1E002C0F0
:1000800005900D92A230B107D9F721E0A2E0B1E0CE
:1000900001C01D92A430B207E1F70E94E7000C9462
:1000A000F0000C9400001092C50088E68093C40014
:1000B00088E18093C10086E08093C200089590910A
:1000C000C00095FFFCCF8093C60008958091C000CA
:1000D00087FFFCCF8091C6000895CF93DF93EC019A
:1000E0008991882319F00E945F00FACFDF91CF91A8
:1000F0000895E1E8F0E080818860808389E09DE3F5
:100100009093890080938800AFE6B0E08C91826084
:100110008C938081856080837894089585EC8093AA
:100120007C0086E880937A0080917A0080648093D6
:100130007A0080917A0086FDFCCF0895529A089546
:1001400084B5836084BD84B5806284BD85B58160DB
:1001500085BD8091000188BD08959BB184E0892709
:100160008BB908951F920F920FB60F9211242F93FF
:100170003F934F935F936F937F938F939F93AF932F
:10018000BF93EF93FF9380917A00806480937A000D
:1001900080917A0086FDFCCF809178009091790063
:1001A00090930301809302010E94AD00FF91EF91B3
:1001B000BF91AF919F918F917F916F915F914F917F
:1001C0003F912F910F900FBE0F901F9018950E9496
:1001D0009E000E948E000E9479000E94A000FFCF26
:0401E000F894FFCFC1
:0201E400800099
:00000001FF
