:100000000C9434000C9451000C9451000C94510049
:100010000C9451000C9451000C9451000C9451001C
:100020000C9451000C9451000C9451000C9451000C
:100030000C9451000C94E5000C9420010C94510098
:100040000C9451000C9451000C9451000C945100EC
:100050000C9451000C9451000C9451000C945100DC
:100060000C9451000C94510011241FBECFEFD8E026
:10007000DEBFCDBF11E0A0E0B1E0E2E8F6E002C0F3
:1000800005900D92A830B107D9F722E0A8E0B1E0C1
:1000900001C01D92AF39B207E1F70E9468010C94CC
:1000A0003F030C9400001092C50088E68093C400C2
:1000B00088E18093C10086E08093C200089590910A
:1000C000C00095FFFCCF8093C60008958091C000CA
:1000D00087FFFCCF8091C6000895CF93DF93EC019A
:1000E0008991882319F00E945F00FACFDF91CF91A8
:1000F000089582E084BD93E095BD99EF97BD80930C
:100100006E000895219A82E8809380008BE18093AD
:10011000810083EC99E0909387008093860081E0D2
:1001200080936F000895853608F084E6A0918600DC
:10013000B09187001196282F30E00E94990124E6A3
:1001400030E040E050E00E94770130938900209336
:100150008800089580E480937C0080917C00856015
:1001600080937C0080917A00866880937A008091E9
:100170007A00806480937A0080917A0086FDFCCFBB
:10018000089580917A00806480937A0080917A004B
:1001900086FDFCCF609178007091790080E090E05E
:1001A0000E94440226EF38E24CE950E40E94D20259
:1001B00020E030E040E85FE30E94A9010E941502C0
:1001C00070939C0260939B0208951F920F920FB64A
:1001D0000F9211242F933F934F935F936F937F93CD
:1001E0008F939F93AF93BF93EF93FF930E94C100B0
:1001F0008091980290919902883C910580F4019633
:100200009093990280939802880F991FFC01E85FF0
:10021000FE4F80919B0290919C0291838083FF917D
:10022000EF91BF91AF919F918F917F916F915F916E
:100230004F913F912F910F900FBE0F901F901895E7
:100240001F920F920FB60F9211242F933F934F934B
:100250005F936F937F938F939F93AF93BF93EF932E
:10026000FF9380919D0290919E02019690939E0231
:1002700080939D0280919D0290919E02883E9340C2
:10028000B0F010929E0210929D0280919A028F5FB0
:1002900080939A02833011F480E503C0863019F40C
:1002A00084E10E94930095B180E1892785B9FF918F
:1002B000EF91BF91AF919F918F917F916F915F91DE
:1002C0004F913F912F910F900FBE0F901F90189557
:1002D0000E94AA000E9482000E9479000E9453009E
:1002E0007894249A269A84E10E949300FFCFA1E299
:1002F0001A2EAA1BBB1BFD010DC0AA1FBB1FEE1FA0
:10030000FF1FA217B307E407F50720F0A21BB30BEA
:10031000E40BF50B661F771F881F991F1A9469F766
:1003200060957095809590959B01AC01BD01CF01C2
:100330000895A29FB001B39FC001A39F700D811DBE
:100340001124911DB29F700D811D1124911D0895DE
:100350005058BB27AA270E94C0010C9498020E9403
:100360008A0238F00E94910220F039F49F3F19F47C
:1003700026F40C9487020EF4E095E7FB0C948102BE
:10038000E92F0E94A90258F3BA176207730784077E
:10039000950720F079F4A6F50C94CB020EF4E095C5
:1003A0000B2EBA2FA02D0B01B90190010C01CA012F
:1003B000A0011124FF27591B99F0593F50F4503EDA
:1003C00068F11A16F040A22F232F342F4427585FCC
:1003D000F3CF469537952795A795F0405395C9F7E4
:1003E0007EF41F16BA0B620B730B840BBAF091509C
:1003F000A1F0FF0FBB1F661F771F881FC2F70EC03B
:10040000BA0F621F731F841F48F48795779567950D
:10041000B795F7959E3F08F0B0CF9395880F08F0F9
:100420009927EE0F9795879508950E94B10288F05D
:100430009F5798F0B92F9927B751B0F0E1F0660FA8
:10044000771F881F991F1AF0BA95C9F714C0B130E9
:1004500091F00E94CB02B1E008950C94CB02672F7B
:10046000782F8827B85F39F0B93FCCF38695779518
:100470006795B395D9F73EF4909580957095619501
:100480007F4F8F4F9F4F0895E89409C097FB3EF42C
:1004900090958095709561957F4F8F4F9F4F9923D1
:1004A000A9F0F92F96E9BB279395F695879577954F
:1004B0006795B795F111F8CFFAF4BB0F11F460FF0F
:1004C0001BC06F5F7F4F8F4F9F4F16C0882311F067
:1004D00096E911C0772321F09EE8872F762F05C07B
:1004E000662371F096E8862F70E060E02AF09A9516
:1004F000660F771F881FDAF7880F9695879597F90B
:10050000089597F99F6780E870E060E008959FEF95
:1005100080EC089500240A9416161706180609069A
:10052000089500240A941216130614060506089569
:10053000092E0394000C11F4882352F0BB0F40F4F1
:10054000BF2B11F460FF04C06F5F7F4F8F4F9F4F31
:10055000089557FD9058440F551F59F05F3F71F0B3
:100560004795880F97FB991F61F09F3F79F087951A
:100570000895121613061406551FF2CF4695F1DFA3
:1005800008C0161617061806991FF1CF8695710533
:10059000610508940895E894BB2766277727CB0167
:1005A00097F908950E94E5020C9498020E948A022D
:1005B00038F00E94910220F0952311F00C948102F2
:1005C0000C94870211240C94CC020E94A90270F3AF
:1005D000959FC1F3950F50E0551F629FF001729FE8
:1005E000BB27F00DB11D639FAA27F00DB11DAA1FF7
:1005F000649F6627B00DA11D661F829F2227B00D44
:10060000A11D621F739FB00DA11D621F839FA00DCE
:10061000611D221F749F3327A00D611D231F849F1E
:10062000600D211D822F762F6A2F11249F57504075
:100630009AF0F1F088234AF0EE0FFF1FBB1F661FF0
:10064000771F881F91505040A9F79E3F510580F0B9
:100650000C9481020C94CC025F3FE4F3983ED4F3F7
:10066000869577956795B795F795E7959F5FC1F75D
:10067000FE2B880F911D9695879597F90895F8940C
:02068000FFCFAA
:080682000201544553540A0023
:00000001FF
