:100000000C9434000C9446000C9446000C9446006A
:100010000C9446000C9446000C9446000C94460048
:100020000C9446000C9446000C9446000C94460038
:100030000C9446000C94C1000C9446000C944600AD
:100040000C9446000C9446000C9446000C94460018
:100050000C9446000C9446000C9446000C94460008
:100060000C9446000C94460011241FBECFEFD8E03C
:10007000DEBFCDBF21E0A0E0B1E001C01D92A43001
:10008000B207E1F70E9405010C9454010C940000A2
:100090001092C50088E68093C40088E18093C10077
:1000A00086E08093C20008959091C00095FFFCCF38
:1000B0008093C60008958091C00087FFFCCF809197
:1000C000C6000895CF93DF93EC018991882319F03E
:1000D0000E945400FACFDF91CF910895219A82E8CF
:1000E0008093800089E1809381008FE79EE3909365
:1000F00087008093860081E080936F007894089554
:10010000853608F084E6A0918600B09187001196AC
:10011000282F30E00E94450124E630E040E050E026
:100120000E94230130938900209388000895ECE712
:10013000F0E080E4808380818560808387E880931D
:100140007A00089580917A00806480937A0080918B
:100150007A0086FDFCCF409178005091790028E824
:1001600033E1429FC001439F900D529F900D112497
:100170006FEF73E00E940F0170930301609302011F
:1001800008951F920F920FB60F9211242F933F9351
:100190004F935F936F937F938F939F93AF93BF938F
:1001A000EF93FF939BB182E089278BB90E94A20055
:1001B000809102019091030124E6289FB001299FBC
:1001C000700D112488E893E10E940F012AE0269F18
:1001D000C001279F900D1124805B9F4F90930101D8
:1001E000809300010E948000FF91EF91BF91AF9139
:1001F0009F918F917F916F915F914F913F912F913F
:100200000F900FBE0F901F9018950E9497000E94AC
:100210006E007894519A82E30E948000FFCFAA1B5F
:10022000BB1B51E107C0AA1FBB1FA617B70710F0E1
:10023000A61BB70B881F991F5A95A9F78095909513
:10024000BC01CD010895A1E21A2EAA1BBB1BFD0122
:100250000DC0AA1FBB1FEE1FFF1FA217B307E407A5
:10026000F50720F0A21BB30BE40BF50B661F771FFD
:10027000881F991F1A9469F76095709580959095DD
:100280009B01AC01BD01CF010895A29FB001B39FB6
:10029000C001A39F700D811D1124911DB29F700D8F
:0C02A000811D1124911D0895F894FFCFDA
:00000001FF
