:100000000C9446000C9458000C9458000C94580022
:100010000C9458000C9458000C9458000C94580000
:100020000C9458000C9458000C9458000C945800F0
:100030000C9458000C94D2000C9458000C94580066
:100040000C9458000C9458000C9458000C945800D0
:100050000C9458000C9458000C9458000C945800C0
:100060000C9458000C9458000C9458000C945800B0
:100070000C9458000C9458000C9458000C945800A0
:100080000C9458000C9458000C94580011241FBE76
:10009000CFEFD0E4DEBFCDBF21E0A0E0B1E001C0F2
:1000A0001D92A230B207E1F70E940A010C942F01C1
:1000B0000C9400001092C50088E68093C40088E18B
:1000C0008093C10086E08093C20008959091C000A3
:1000D00095FFFCCF8093C60008958091C00087FFF4
:1000E000FCCF8091C6000895CF93DF93EC018991F6
:1000F000882319F00E946600FACFDF91CF9108950E
:1001000084B5826084BD85B5886085BD89EF87BD73
:10011000EEE6F0E080818260808385B5836085BDF6
:100120007894089588EC80937C0086E880937A0028
:1001300080917A00806480937A0080917A0086FDB5
:10014000FCCF08952091860030918700482F429F70
:10015000C001439F900D112464E670E00E941B01D2
:1001600070938900609388000895E0E8F0E0808152
:1001700082688083E1E8F0E080818A6180838FE19A
:100180009EE49093870080938600219A0895809141
:100190000101853608F084E680930001809100011A
:1001A0000C94A2001F920F920FB60F9211240BB65F
:1001B0000F922F933F934F935F936F937F938F9300
:1001C0009F93AF93BF93EF93FF9380917A008064E6
:1001D00080937A0080917A0086FDFCCF8091780030
:1001E000909179008151809301010E94C700FF9195
:1001F000EF91BF91AF919F918F917F916F915F919F
:100200004F913F912F910F900BBE0F900FBE0F900B
:100210001F9018950E945A000E9480000E94920030
:1002200083B7817F846083BF83B7816083BF8895F4
:1002300083B78E7FF8CFAA1BBB1B51E107C0AA1F53
:10024000BB1FA617B70710F0A61BB70B881F991F77
:100250005A95A9F780959095BC01CD010895F89421
:02026000FFCFCE
:00000001FF
