:100000000C9434000C9451000C9451000C94510049
:100010000C9451000C9451000C9451000C9451001C
:100020000C9451000C9451000C9451000C9451000C
:100030000C9451000C9493000C94F3000C94510018
:100040000C9451000C9451000C9451000C945100EC
:100050000C9451000C9451000C9451000C945100DC
:100060000C9451000C94510011241FBECFEFD8E026
:10007000DEBFCDBF11E0A0E0B1E0ECEFFBE002C0DD
:1000800005900D92AA32B107D9F722E0AAE2B1E0B9
:1000900001C01D92A13CB207E1F70E9454010C94EB
:1000A000FC050C9400001092C50088E68093C40003
:1000B00088E18093C10086E08093C200089590910A
:1000C000C00095FFFCCF8093C60008958091C000CA
:1000D00087FFFCCF8091C6000895CF93DF93EC019A
:1000E0008991882319F00E945F00FACFDF91CF91A8
:1000F000089582E084BD93E095BD99EF97BD80930C
:100100006E000895219A82E8809380008BE18093AD
:10011000810083EC99E0909387008093860081E0D2
:1001200080936F0008951F920F920FB60F921124C3
:100130000F900FBE0F901F90189580E480937C0065
:1001400080917C00856080937C0080917A00866835
:1001500080937A0080917A00806480937A00809105
:100160007A0086FDFCCF089580917A0080648093A8
:100170007A0080917A0086FDFCCF609178007091C2
:10018000790080E090E00E94170226EF38E24CE907
:1001900050E40E94A50220E030E040E85FE30E94C6
:1001A0007C010E94E8017093BD026093BC02089537
:1001B000209102018091020190910201869586951D
:1001C0008695929596959695937089278170922F32
:1001D000990F890F80930201809102018295869583
:1001E0008695837008951F920F920FB60F92112477
:1001F0002F933F934F935F936F937F938F939F932F
:10020000AF93BF93EF93FF938091BF029091C00291
:1002100001969093C0028093BF028091BF0290919B
:10022000C002883C910578F11092C0021092BF0282
:100230000E94D8008093BE028091BE02882311F0F4
:100240005F9A01C05F988091BE021F928F9387E1F1
:1002500091E09F938F93809101018F938091000192
:100260008F930E94120380910001909101010E94DE
:100270006D0095B180E1892785B90F900F900F909F
:100280000F900F900F90FF91EF91BF91AF919F91C1
:100290008F917F916F915F914F913F912F910F902F
:1002A0000FBE0F901F9018950E9482000E94790047
:1002B0000E9453007894579A249A269A80910201BA
:1002C0001F928F9383E091E09F938F938091010120
:1002D0008F93809100018F930E94120380910001FF
:1002E000909101010E946D000F900F900F900F9060
:1002F0000F900F90FFCF5058BB27AA270E94930161
:100300000C946B020E945D0238F00E94640220F09F
:1003100039F49F3F19F426F40C945A020EF4E09538
:10032000E7FB0C945402E92F0E947C0258F3BA17A1
:10033000620773078407950720F079F4A6F50C94FB
:100340009E020EF4E0950B2EBA2FA02D0B01B901E1
:1003500090010C01CA01A0011124FF27591B99F03B
:10036000593F50F4503E68F11A16F040A22F232F47
:10037000342F4427585FF3CF469537952795A79597
:10038000F0405395C9F77EF41F16BA0B620B730B3E
:10039000840BBAF09150A1F0FF0FBB1F661F771FAF
:1003A000881FC2F70EC0BA0F621F731F841F48F464
:1003B000879577956795B795F7959E3F08F0B0CFED
:1003C0009395880F08F09927EE0F979587950895D4
:1003D0000E94840288F09F5798F0B92F9927B7514F
:1003E000B0F0E1F0660F771F881F991F1AF0BA95D9
:1003F000C9F714C0B13091F00E949E02B1E0089597
:100400000C949E02672F782F8827B85F39F0B93F88
:10041000CCF3869577956795B395D9F73EF490958B
:100420008095709561957F4F8F4F9F4F0895E89409
:1004300009C097FB3EF490958095709561957F4F2C
:100440008F4F9F4F9923A9F0F92F96E9BB279395DA
:10045000F695879577956795B795F111F8CFFAF4EA
:10046000BB0F11F460FF1BC06F5F7F4F8F4F9F4F1B
:1004700016C0882311F096E911C0772321F09EE879
:10048000872F762F05C0662371F096E8862F70E0DF
:1004900060E02AF09A95660F771F881FDAF7880FB9
:1004A0009695879597F9089597F99F6780E870E08A
:1004B00060E008959FEF80EC089500240A941616DA
:1004C000170618060906089500240A941216130642
:1004D000140605060895092E0394000C11F48823D0
:1004E00052F0BB0F40F4BF2B11F460FF04C06F5FEC
:1004F0007F4F8F4F9F4F089557FD9058440F551FC2
:1005000059F05F3F71F04795880F97FB991F61F095
:100510009F3F79F087950895121613061406551F0C
:10052000F2CF4695F1DF08C0161617061806991F78
:10053000F1CF86957105610508940895E894BB276D
:1005400066277727CB0197F908950E94B8020C948B
:100550006B020E945D0238F00E94640220F0952335
:1005600011F00C9454020C945A0211240C949F0222
:100570000E947C0270F3959FC1F3950F50E0551FC8
:10058000629FF001729FBB27F00DB11D639FAA27E8
:10059000F00DB11DAA1F649F6627B00DA11D661F37
:1005A000829F2227B00DA11D621F739FB00DA11D58
:1005B000621F839FA00D611D221F749F3327A00D12
:1005C000611D231F849F600D211D822F762F6A2FAE
:1005D00011249F5750409AF0F1F088234AF0EE0F13
:1005E000FF1FBB1F661F771F881F91505040A9F740
:1005F0009E3F510580F00C9454020C949F025F3F83
:10060000E4F3983ED4F3869577956795B795F7957B
:10061000E7959F5FC1F7FE2B880F911D96958795F3
:1006200097F90895AEE0B0E0E8E1F3E00C94D3056B
:100630000D891E8986E08C831A8309838FEF9FE7DB
:100640009E838D83AE01475E5F4F6F89788DCE01AB
:1006500001960E943403EF81F885E00FF11F1082AC
:100660002E96E4E00C94EF05ABE0B0E0EAE3F3E0B3
:100670000C94C5056C017B018A01FC01178216826E
:10068000838181FFCCC1CE0101963C01F6019381AB
:10069000F70193FD859193FF81917F01882309F4F0
:1006A000BAC1853239F493FD859193FF81917F0121
:1006B000853229F4B60190E00E942B05E7CF912CFA
:1006C000212C312CFFE1F315D8F08B3279F038F47E
:1006D000803279F08332A1F4232D20611DC08D3248
:1006E00061F0803369F4232D216016C0832D826070
:1006F000382EE32DE4603E2E2AC0F32DF8601DC095
:1007000037FC2DC020ED280F2A3040F08E32B9F48E
:1007100036FC81C1232D2064322E19C036FE06C05E
:100720008AE0989E200D1124922E11C0EAE02E9EA0
:10073000200D1124222EF32DF0623F2E08C08C369E
:1007400021F4832D8068382E02C0883641F4F701E9
:1007500093FD859193FF81917F018111B3CF982FF4
:100760009F7D9554933028F40C5F1F4F9FE399832E
:100770000DC0833631F0833771F0833509F059C0ED
:1007800021C0F801808189830E5F1F4F88248394E4
:10079000912C530113C02801F2E04F0E511CF801B7
:1007A000A080B18036FE03C0692D70E002C06FEFFB
:1007B0007FEFC5010E9420054C018201F32DFF77D8
:1007C0003F2E16C0280122E0420E511CF801A080E5
:1007D000B18036FE03C0692D70E002C06FEF7FEF7D
:1007E000C5010E9415054C01F32DF0683F2E8201D2
:1007F00033FC1BC0822D90E088169906B0F4B60138
:1008000080E290E00E942B052A94F4CFF50137FC9A
:10081000859137FE81915F01B60190E00E942B0522
:1008200021102A9421E0821A91088114910471F711
:10083000E8C0843611F0893641F5F80137FE07C06B
:1008400060817181828193810C5F1F4F08C060813C
:100850007181072E000C880B990B0E5F1F4FF32D33
:10086000FF763F2E97FF09C0909580957095619512
:100870007F4F8F4F9F4FF0683F2E2AE030E0A3015B
:100880000E946705882E861845C0853731F4232DD0
:100890002F7EB22E2AE030E025C0932D997FB92E0D
:1008A0008F36C1F018F4883579F0B5C0803719F06B
:1008B000883721F0B0C0E92FE061BE2EB4FE0DC034
:1008C000FB2DF460BF2E09C034FE0AC0292F26601C
:1008D000B22E06C028E030E005C020E130E002C0C2
:1008E00020E132E0F801B7FE07C0608171818281AA
:1008F00093810C5F1F4F06C06081718180E090E0A2
:100900000E5F1F4FA3010E946705882E8618FB2DDE
:10091000FF773F2E36FE0DC0232D2E7FA22E891489
:1009200058F434FE0BC032FC09C0832D8E7EA82EF5
:1009300005C0B82CA32C03C0B82C01C0B92CA4FE50
:100940000FC0FE01E80DF11D8081803321F49A2D46
:10095000997EA92E09C0A2FE06C0B394B39404C028
:100960008A2D867809F0B394A3FC11C0A0FE06C0BE
:10097000B21488F4280C922C9B180EC0B21460F4A8
:10098000B60180E290E00E942B05B394F7CFB21439
:1009900018F42B1802C0982C212CA4FE10C0B6010C
:1009A00080E390E00E942B05A2FE17C0A1FC03C0CB
:1009B00088E790E002C088E590E0B6010CC08A2D7F
:1009C000867859F0A1FE02C08BE201C080E2A7FC4C
:1009D0008DE2B60190E00E942B05891438F4B6012F
:1009E00080E390E00E942B059A94F7CF8A94F3015C
:1009F000E80DF11D8081B60190E00E942B05811069
:100A0000F5CF222009F442CEB60180E290E00E94A8
:100A10002B052A94F6CFF6018681978102C08FEFCD
:100A20009FEF2B96E2E10C94E105FC0105906150EB
:100A300070400110D8F7809590958E0F9F1F0895F4
:100A4000FC016150704001900110D8F7809590959D
:100A50008E0F9F1F08950F931F93CF93DF93FB017A
:100A6000238121FD03C08FEF9FEF2CC022FF16C012
:100A700046815781248135814217530744F4A08170
:100A8000B1819D012F5F3F4F318320838C9326815D
:100A900037812F5F3F4F3783268314C08B01EC01D2
:100AA000FB010084F185E02D0995892BE1F6D80141
:100AB00016968D919C911797019617969C938E93FD
:100AC0001697CE01DF91CF911F910F910895FA01F2
:100AD000AA27283051F1203181F1E8946F936E7F7D
:100AE0006E5F7F4F8F4F9F4FAF4FB1E03ED0B4E06E
:100AF0003CD0670F781F891F9A1FA11D680F791FAF
:100B00008A1F911DA11D6A0F711D811D911DA11DBF
:100B100020D009F468943F912AE0269F11243019CF
:100B2000305D3193DEF6CF010895462F4770405D6A
:100B30004193B3E00FD0C9F7F6CF462F4F70405D19
:100B40004A3318F0495D31FD4052419302D0A9F774
:100B5000EACFB4E0A6959795879577956795BA956E
:100B6000C9F700976105710508959B01AC010A2E34
:100B700006945795479537952795BA95C9F7620F0B
:100B8000731F841F951FA01D08952F923F924F92AF
:100B90005F926F927F928F929F92AF92BF92CF920D
:100BA000DF92EF92FF920F931F93CF93DF93CDB716
:100BB000DEB7CA1BDB0B0FB6F894DEBF0FBECDBF8E
:100BC00009942A88398848885F846E847D848C845F
:100BD0009B84AA84B984C884DF80EE80FD800C8168
:100BE0001B81AA81B981CE0FD11D0FB6F894DEBF4B
:0C0BF0000FBECDBFED010895F894FFCFBB
:100BFC0023017F707262735F6275666665723A205C
:100C0C00272564270D0A0076616C3A202725642776
:0A0C1C000D0A00544553540A00006D
:00000001FF
