:100000000C9434000C9451000C9451000C94510049
:100010000C9451000C9451000C9451000C9451001C
:100020000C9451000C9451000C9451000C9451000C
:100030000C9451000C9451000C94D7000C94510076
:100040000C9451000C9451000C9451000C945100EC
:100050000C9451000C9451000C9451000C945100DC
:100060000C9451000C94510011241FBECFEFD8E026
:10007000DEBFCDBF11E0A0E0B1E0ECE6F5E002C0EC
:1000800005900D92AA30B107D9F722E0AAE0B1E0BD
:1000900001C01D92A13AB207E1F70E9418010C9429
:1000A000B4020C9400001092C50088E68093C4004E
:1000B00088E18093C10086E08093C200089590910A
:1000C000C00095FFFCCF8093C60008958091C000CA
:1000D00087FFFCCF8091C6000895CF93DF93EC019A
:1000E0008991882319F00E945F00FACFDF91CF91A8
:1000F000089582E084BD93E095BD99EF97BD80930C
:100100006E00089580E480937C0080917C0085607F
:1001100080937C0080917A00866880937A00809139
:100120007A00806480937A0080917A0086FDFCCF0B
:10013000089580917A00806480937A0080917A009B
:1001400086FDFCCF609178007091790080E090E0AE
:100150000E94B90126EF38E24CE950E40E944702C0
:1001600020E030E040E85FE30E941E010E948A0127
:1001700070939D0260939C020895209102018091EA
:1001800002019091020186958695869592959695A5
:100190009695937089278170922F990F890F80937C
:1001A000020180910201881F8827881F08951F92ED
:1001B0000F920FB60F9211242F933F934F935F939B
:1001C0006F937F938F939F93AF93BF93EF93FF931F
:1001D00080919F029091A00201969093A00280933B
:1001E0009F0280919F029091A002883C910578F037
:1001F0001092A00210929F020E94BD0080939E0266
:1002000080919E02882311F0299A01C02998FF91BC
:10021000EF91BF91AF919F918F917F916F915F917E
:100220004F913F912F910F900FBE0F901F901895F7
:100230000E9479007894219AFFCF5058BB27AA27B3
:100240000E9435010C940D020E94FF0138F00E94BB
:10025000060220F039F49F3F19F426F40C94FC01B7
:100260000EF4E095E7FB0C94F601E92F0E941E02C4
:1002700058F3BA17620773078407950720F079F4DB
:10028000A6F50C9440020EF4E0950B2EBA2FA02D8B
:100290000B01B90190010C01CA01A0011124FF2733
:1002A000591B99F0593F50F4503E68F11A16F0402E
:1002B000A22F232F342F4427585FF3CF469537952D
:1002C0002795A795F0405395C9F77EF41F16BA0BF2
:1002D000620B730B840BBAF09150A1F0FF0FBB1FA0
:1002E000661F771F881FC2F70EC0BA0F621F731FE9
:1002F000841F48F4879577956795B795F7959E3F46
:1003000008F0B0CF9395880F08F09927EE0F9795D6
:10031000879508950E94260288F09F5798F0B92F7C
:100320009927B751B0F0E1F0660F771F881F991F2A
:100330001AF0BA95C9F714C0B13091F00E9440028A
:10034000B1E008950C944002672F782F8827B85F9A
:1003500039F0B93FCCF3869577956795B395D9F782
:100360003EF490958095709561957F4F8F4F9F4F8C
:100370000895E89409C097FB3EF490958095709598
:1003800061957F4F8F4F9F4F9923A9F0F92F96E9E1
:10039000BB279395F695879577956795B795F11156
:1003A000F8CFFAF4BB0F11F460FF1BC06F5F7F4FF3
:1003B0008F4F9F4F16C0882311F096E911C0772305
:1003C00021F09EE8872F762F05C0662371F096E80E
:1003D000862F70E060E02AF09A95660F771F881FDD
:1003E000DAF7880F9695879597F9089597F99F679B
:1003F00080E870E060E008959FEF80EC08950024AD
:100400000A941616170618060906089500240A9479
:1004100012161306140605060895092E0394000CFF
:1004200011F4882352F0BB0F40F4BF2B11F460FF8E
:1004300004C06F5F7F4F8F4F9F4F089557FD9058B7
:10044000440F551F59F05F3F71F04795880F97FB98
:10045000991F61F09F3F79F0879508951216130652
:100460001406551FF2CF4695F1DF08C01616170681
:100470001806991FF1CF86957105610508940895B6
:10048000E894BB2766277727CB0197F908950E9448
:100490005A020C940D020E94FF0138F00E940602DD
:1004A00020F0952311F00C94F6010C94FC0111241A
:1004B0000C9441020E941E0270F3959FC1F3950FA8
:1004C00050E0551F629FF001729FBB27F00DB11DD8
:1004D000639FAA27F00DB11DAA1F649F6627B00D68
:1004E000A11D661F829F2227B00DA11D621F739F51
:1004F000B00DA11D621F839FA00D611D221F749F5F
:100500003327A00D611D231F849F600D211D822FA5
:10051000762F6A2F11249F5750409AF0F1F08823CC
:100520004AF0EE0FFF1FBB1F661F771F881F9150F9
:100530005040A9F79E3F510580F00C94F6010C94B1
:1005400041025F3FE4F3983ED4F386957795679533
:10055000B795F795E7959F5FC1F7FE2B880F911D23
:0C0560009695879597F90895F894FFCFC1
:0A056C0003017F544553540A0000B8
:00000001FF
